:02000000D42802
:1000060083169C1C08280000032829089B002A0840
:100016009A009C131C150B08D0008B1355309D00BD
:10002600AA309D009C14D01B1A288B131B288B17F3
:040036001C11080091
:10003A008312280883169B009C131C141A08D000EC
:02004A000800AC
:10004C008312851083168510043083128506413087
:10005C00DC00EE30DD00DD0B3128DC0B312800003C
:10006C00043085060230DB000430DC00BA30DD00E1
:10007C00DD0B3E28DC0B3E28DB0B3E2800008316F4
:08008C0085148312851408009D
:100094008312051285122208D000D00D5010D00D05
:1000A4005010D00D5010D00D501050088504A901E7
:0800B4002208AA000320080045
:0C00BC00831225088A0024088200080036
:1000C8000430831285064130DC00EE30DD00DD0BA4
:1000D8006B28DC0B6B280000043085064130DC00FF
:1000E800EE30DD00DD0B7628DC0B762800000800FA
:1000F8008316810195140730831299000B308316FB
:1001080085008312851485150511A8011D20500846
:10011800A200831285155008033C03189428A201F5
:100128002208A8004A2026200A30831696008B153C
:100138008B13A701053027020318B9288312051568
:100148004130DC00EE30DD00DD0BA828DC0BA828F0
:10015800000005114130DC00EE30DD00DD0BB22877
:0C016800DC0BB2280000A70A9E2808004B
:100174005E208A110A128000840AA40A0319A50ABF
:08018400D003031DBA28080096
:06018C00831205150800B6
:100192008312A20A03302205D0005008A2005008A0
:0601A200A8004A2008003D
:1001A8008312A001A101A201A3017C20C620652918
:1001B8008312851DE228851CE228EE28A00A8230D9
:1001C800DC00DD30DD00DD0BE728DC0BE728000074
:1001D800000004292108003C0318F7280130A30077
:1001E800A601A0010429A00163000B108230DC00E5
:1001F800DD30DD00DD0BFE28DC0BFE2800000000F2
:1002080020080F3C03180B29A10AA00164207A29B1
:1002180029290430A30042290230A30042290330CF
:10022800A300A20142290330A3000130A200422901
:100238000330A3000230A20042290330A300033098
:10024800A20042290430A30042292108013A0319D7
:100258000D292108023A031910292108033A031924
:1002680013292108043A031917292108053A031903
:100278001C292108063A031921292629A1017A29CE
:100288000430A300C9201A30DC00F830DD00DD0B93
:100298004B29DC0B4B2900007A290430A3002208E3
:1002A800A8004A201A30DC00F830DD00DD0B5A299E
:1002B800DC0B5A2900007A29A3012620A0017A29FB
:1002C8007A292308003A0319DC282308013A03197C
:1002D8000C292308023A031944292308033A03196D
:1002E80051292308043A031960296429DA287B294B
:02400E009431EB
:00000001FF
