:02000000D62800
:1000060083169C1C08280000032829089B002A0840
:100016009A009C131C150B08D0008B1355309D00BD
:10002600AA309D009C14D01B1A288B131B288B17F3
:040036001C11080091
:10003A008312280883169B009C131C141A08D000EC
:02004A000800AC
:10004C008312851083168510043083128506413087
:10005C00DC00EE30DD00DD0B3128DC0B312800003C
:10006C00043085060230DB000430DC00BA30DD00E1
:10007C00DD0B3E28DC0B3E28DB0B3E2800008316F4
:08008C0085148312851408009D
:100094008312051285122208D000D00D5010D00D05
:1000A4005010D00D5010D00D501050088504A901E7
:0800B4002208AA000320080045
:0C00BC00831225088A0024088200080036
:1000C8000430831285068230DC00DD30DD00DD0B74
:1000D8006B28DC0B6B28000000000430850682309A
:1000E800DC00DD30DD00DD0B7728DC0B7728000035
:0400F80000000800FC
:1000FC008316810195140730831299000B308316F7
:10010C0085008312851485150511A8011D20500842
:10011C00A200831285155008033C03189628A201EF
:10012C002208A8004A2026200A30831696008B1538
:10013C008B13A701053027020318BB288312051562
:10014C004130DC00EE30DD00DD0BAA28DC0BAA28E8
:10015C00000005114130DC00EE30DD00DD0BB42871
:0C016C00DC0BB4280000A70AA028080043
:100178005E208A110A128000840AA40A0319A50ABB
:08018800D003031DBC28080090
:06019000831205150800B2
:100196008312A20A03302205D0005008A20050089C
:0601A600A8004A20080039
:1001AC008312A001A101A201A3017E20C82067290E
:1001BC008312851DE428851CE428F028A00A8230CF
:1001CC00DC00DD30DD00DD0BE928DC0BE92800006C
:1001DC00000006292108003C0318F9280130A3006F
:1001EC00A601A0010629A00163000B108230DC00DF
:1001FC00DD30DD00DD0B0029DC0B002900000000E8
:10020C0020080A3C03180D29A10AA00164207C29AE
:10021C002B290430A30044290230A30044290330C5
:10022C00A300A20144290330A3000130A2004429F9
:10023C000330A3000230A20044290330A300033092
:10024C00A20044290430A30044292108013A0319CF
:10025C000F292108023A031912292108033A03191C
:10026C0015292108043A031919292108053A0319FB
:10027C001E292108063A031923292829A1017C29C2
:10028C000430A300CB201A30DC00F830DD00DD0B8D
:10029C004D29DC0B4D2900007C290430A3002208D9
:1002AC00A8004A201A30DC00F830DD00DD0B5C2998
:1002BC00DC0B5C2900007C29A3012620A0017C29F1
:1002CC007C292308003A0319DE282308013A031974
:1002DC000E292308023A031946292308033A031965
:1002EC0053292308043A031962296629DC287D293D
:02400E009431EB
:00000001FF
